:1000000019C033C032C031C030C02FC02EC02DC087
:100010002CC02BC02AC029C028C027C026C025C09C
:1000200024C023C022C021C020C020C01EC01DC0CB
:100030001CC01BC011241FBECFEFD4E0DEBFCDBF5C
:1000400011E0A0E0B1E0EAE8F7E002C005900D920F
:10005000A430B107D9F711E0A4E0B1E001C01D92CE
:10006000A830B107E1F79BD28EC3CACF1F920F927F
:100070000FB60F9211242F933F934F935F936F937B
:100080007F938F939F93AF93BF93EF93FF93809151
:1000900078009091790080930601909307019AD19E
:1000A00080E091E062D281E090E020910401309103
:1000B00005012115310511F080E090E090930501D4
:1000C000809304017DD080917A00806180937A00D2
:1000D000FF91EF91BF91AF919F918F917F916F9120
:1000E0005F914F913F912F910F900FBE0F901F90F6
:1000F0001895ECE7F0E090819F7290839081829553
:10010000880F880F807C892B8083089590917A00D6
:10011000987F90937A008031D9F0813138F484301F
:1001200079F0883089F08230F9F407C08034E1F04A
:100130008038B1F08032C1F40FC080917A0017C0CE
:1001400080917A00826013C080917A0083600FC032
:1001500080917A0084600BC080917A00856007C02E
:1001600080917A00876003C080917A0086608093D6
:100170007A00089582309105B9F08330910530F40A
:10018000009771F081309105D1F40CC08430910555
:1001900079F08430910550F08530910581F40CC0E0
:1001A00081E007C082E005C084E003C088E001C0B0
:1001B00080E180937E00089580E280937E00089520
:1001C000ECE7F0E02081207F20832081282B208312
:1001D000D1DF08958230910599F08330910530F494
:1001E000009771F08130910581F40AC08430910547
:1001F00039F08430910520F08530910531F403C049
:1002000010927E00089510927E000895EBE7F0E0D2
:100210009081987F90839081982B908308950F937D
:100220001F93CF93DF93CDB7DEB727970FB6F89420
:10023000DEBF0FBECDBF29833A834B835C836D83C2
:100240007E838F8309811A81C801BADFC80192DFDA
:100250008B815CDF8C819D814CDF8E819F81D6DF1D
:1002600027960FB6F894DEBF0FBECDBFDF91CF91BA
:100270001F910F9108950F931F93CF93DF93CDB7E5
:10028000DEB729970FB6F894DEBF0FBECDBF098346
:100290001A832B833C834D835E836F8378878987A2
:1002A0008091C00082608093C0008D819E8128E390
:1002B0008034920791F128E38134920768F422E1B7
:1002C000803C920731F125E280389207D1F129E094
:1002D00080369207B1F516C020E78038920729F1E1
:1002E00020E78138920728F42BE48030920749F503
:1002F00018C026E980309207E1F021EE80309207A5
:1003000001F51BC080EA91E09093C5008093C40082
:100310001DC01092C5008FEC17C01092C50084E478
:1003200013C01092C50083E30FC01092C50082E293
:100330000BC01092C50089E107C01092C50080E192
:1003400003C01092C50087E68093C4008B81880F9C
:10035000880F880F99819295907F892B8093C10097
:100360008F8190E0019723E0880F991F2A95E1F78C
:1003700086608093C2008091C2008F7C8093C2000F
:10038000888599858130910539F08130910560F03B
:100390008230910549F404C08091C200806206C099
:1003A0008091C200806302C08091C2008093C2002D
:1003B00029960FB6F894DEBF0FBECDBFDF91CF9167
:1003C0001F910F9108959091C00095FFFCCF8093ED
:1003D000C6000895EF92FF920F931F93CF93DF9380
:1003E000CDB7DEB727970FB6F894DEBF0FBECDBFEF
:1003F0008E010F5F1F4F27E0F80111922A95E9F750
:10040000B8014AE050E014D1780100E010E0F701B3
:1004100081917F018111D7DF0F5F1F4F07301105D9
:10042000B1F727960FB6F894DEBF0FBECDBFDF91B0
:10043000CF911F910F91FF90EF900895EF92FF924F
:100440000F931F93CF93DF9300D000D000D0CDB790
:10045000DEB78E010F5F1F4F26E0F80111922A953B
:10046000E9F7B8014AE050E034D1780100E010E04B
:10047000F70181917F018111A6DF0F5F1F4F0530CA
:100480001105B1F726960FB6F894DEBF0FBECDBFAB
:10049000DF91CF911F910F91FF90EF900895EF9210
:1004A000FF920F931F93CF93DF93CDB7DEB72B97B8
:1004B0000FB6F894DEBF0FBECDBF8E010F5F1F4F8A
:1004C0002BE0F80111922A95E9F7A8012AE030E023
:1004D000CED078018E01045F1F4FF70181917F011B
:1004E000811171DFE016F106C1F72B960FB6F89473
:1004F000DEBF0FBECDBFDF91CF911F910F91FF9057
:10050000EF900895EF92FF920F931F93CF93DF9395
:10051000CDB7DEB72B970FB6F894DEBF0FBECDBFB9
:100520008E010F5F1F4F2BE0F80111922A95E9F71A
:10053000A8012AE030E09BD078018E01055F1F4FB3
:10054000F70181917F0181113EDFE016F106C1F7CD
:100550002B960FB6F894DEBF0FBECDBFDF91CF91C3
:100560001F910F91FF90EF900895CF93DF93EC01CF
:1005700001C029DF89918823E1F7DF91CF910895A8
:100580008091C00087FFFCCF8091C600089502C013
:100590008091C6008091C00087FDFACF0895CF9367
:1005A000DF93CDB7DEB760970FB6F894DEBF0FBE0E
:1005B000CDBF80E895E2482F9D878C8721E0E22E11
:1005C000F12C0E2DF986E8862E2DFB86EA8681E039
:1005D0008E87188A1F8619853B855D8561E070E0EE
:1005E000888949DE1A8219825E2DFD82EC8280E8BC
:1005F0008B831F821E8220E03A8140E86D8170E08B
:100600008F810DDE789480917A00886080937A00E3
:1006100080917A00806880937A0080917A0080626D
:1006200080937A0080917A00806480937A00FFCF73
:10063000FB019F01E8944230BCF04532ACF44A30F3
:1006400029F497FB1EF4909581959F4F642F77278F
:1006500064D0805D8A330CF0895D8193CB01009773
:10066000A9F716F45DE251931082C90146C0FA0160
:10067000CF93FF93EF9322303CF125322CF5C22F1C
:10068000E894CA3049F497FB3EF4909580957095B4
:1006900061957F4F8F4F9F4F2C2F3327442755272E
:1006A000FF93EF934ED0EF91FF91605D6A330CF0B2
:1006B000695D6193B901CA0160507040804090400B
:1006C00059F716F4CDE2C19310828F919F91CF918B
:1006D00014C0FB019F0142306CF045325CF4642F82
:1006E00077271BD0805D8A330CF0895D8193CB0125
:1006F0000097A9F71082C90100C0DC01FC01672F37
:1007000071917723E1F7329704C07C916D937083E8
:100710006291AE17BF07C8F30895AA1BBB1B51E136
:1007200007C0AA1FBB1FA617B70710F0A61BB70B61
:10073000881F991F5A95A9F780959095BC01CD0106
:100740000895A1E21A2EAA1BBB1BFD010DC0AA1F12
:10075000BB1FEE1FFF1FA217B307E407F50720F02A
:10076000A21BB30BE40BF50B661F771F881F991FA5
:100770001A9469F760957095809590959B01AC01EE
:0A078000BD01CF010895F894FFCFEA
:04078A000A0D000054
:00000001FF
