:1000000019C033C032C031C030C02FC02EC02DC087
:100010002CC02BC02AC029C028C027C026C025C09C
:1000200024C023C022C021C020C01FC01EC01DC0CC
:100030006BC01BC011241FBECFEFD4E0DEBFCDBF0D
:1000400011E0A0E0B1E0E2E7F2E002C005900D921D
:10005000A230B107D9F711E0A2E0B1E001C01D92D2
:10006000A630B107E1F7F1D002C1CACF80910401F7
:10007000813A11F1823A18F4803AC9F505C0823A02
:10008000A1F1833AA1F52EC0209A95B121E09227E3
:1000900095B98093040185E08093050120930601C2
:1000A00092E09093070193E09093080194E090937D
:1000B000090180930A010895529A9BB124E0922786
:1000C0009BB9809304012093050185E0809306018C
:1000D00086E08093070187E08093080188E08093A1
:1000E00009010895529A5A9A0895209A289A0895D3
:1000F00090E0880F991F8093BA0085EC8093BC0034
:1001000078941092030108951F920F920FB60F92E8
:1001100011242F938F939F93EF93FF938091B900B6
:10012000887F883A89F0893A40F4883681F18038AE
:10013000D1F1803609F061C02AC0883B61F0803C73
:1001400059F1803B09F059C0809104018093BB00B4
:1001500085E091E023C0E0910001F09101018191DF
:100160008093BB00F0930101E093000181E0E63051
:10017000F80740F08091050190E08A5F9E4FE817F4
:10018000F90750F482E0E530F80730F451C081E01F
:10019000809302011092050184E091E090930101A7
:1001A0008093000145C08091BB00E0910001F09177
:1001B00001018193F0930101E093000181E0E630B9
:1001C000F80740F08091050190E08A5F9E4FE817A4
:1001D000F90720F482E0E530F80750F185E88093D4
:1001E000BC001092020181E08093030184E091E061
:1001F00090930101809300011EC080910301882328
:1002000079F42091020184E091E0222359F01092C8
:10021000020121E0209303019093010180930001EA
:1002200085E807C0909301018093000110920201BC
:1002300085EC8093BC00FF91EF919F918F912F915E
:100240000F900FBE0F901F90189580E8809361006B
:10025000109261008AE04CDFC5EC80910301882395
:10026000E1F304DF10920301C093BC00F6CFF894D1
:02027000FFCFBE
:02027200040185
:00000001FF
