:1000000019C033C032C031C030C02FC02EC02DC087
:100010002CC02BC02AC029C028C027C026C025C09C
:1000200024C023C022C021C020C01FC01EC01DC0CC
:100030001CC01BC011241FBECFEFD4E0DEBFCDBF5C
:1000400011E0A0E0B1E0E0E4F5E002C005900D921F
:10005000A031B107D9F711E0A0E1B1E001C01D92D4
:10006000A031B107E1F796D169C2CACF0F931F93B0
:10007000CF93DF93CDB7DEB729970FB6F894DEBFE5
:100080000FBECDBF09831A832B833C834D835E83D0
:100090006F83788789878091C00082608093C000D9
:1000A0008D819E8128E38034920791F128E3813489
:1000B000920768F422E1803C920731F125E2803812
:1000C0009207D1F129E080369207B1F516C020E7FA
:1000D0008038920729F120E78138920728F42BE431
:1000E0008030920749F518C026E980309207E1F088
:1000F00021EE8030920701F51BC080EA91E09093D9
:10010000C5008093C4001DC01092C5008FEC17C0BD
:100110001092C50084E413C01092C50083E30FC0A1
:100120001092C50082E20BC01092C50089E107C0A1
:100130001092C50080E103C01092C50087E680934D
:10014000C4008B81880F880F880F99819295907FCA
:10015000892B8093C1008F8190E0019723E0880F65
:10016000991F2A95E1F786608093C2008091C200B2
:100170008F7C8093C200888599858130910539F004
:100180008130910560F08230910549F404C080917E
:10019000C200806206C08091C200806302C080916C
:1001A000C2008093C20029960FB6F894DEBF0FBE3E
:1001B000CDBFDF91CF911F910F9108959091C00015
:1001C00095FFFCCF8093C6000895EF92FF920F93A6
:1001D0001F93CF93DF93CDB7DEB727970FB6F89471
:1001E000DEBF0FBECDBF8E010F5F1F4F27E0F801AE
:1001F00011922A95E9F7B8014AE050E0F4D078016D
:1002000000E010E0F70181917F018111D7DF0F5FDE
:100210001F4F07301105B1F727960FB6F894DEBFD0
:100220000FBECDBFDF91CF911F910F91FF90EF9047
:100230000895EF92FF920F931F93CF93DF9300D017
:1002400000D000D0CDB7DEB78E010F5F1F4F26E084
:10025000F80111922A95E9F7B8014AE050E014D16B
:10026000780100E010E0F70181917F018111A6DFA4
:100270000F5F1F4F05301105B1F726960FB6F894A2
:10028000DEBF0FBECDBFDF91CF911F910F91FF90C9
:10029000EF900895EF92FF920F931F93CF93DF9308
:1002A000CDB7DEB72B970FB6F894DEBF0FBECDBF2C
:1002B0008E010F5F1F4F2BE0F80111922A95E9F78D
:1002C000A8012AE030E0AED078018E01045F1F4F14
:1002D000F70181917F01811171DFE016F106C1F70D
:1002E0002B960FB6F894DEBF0FBECDBFDF91CF9136
:1002F0001F910F91FF90EF900895EF92FF920F934F
:100300001F93CF93DF93CDB7DEB72B970FB6F8943B
:10031000DEBF0FBECDBF8E010F5F1F4F2BE0F80178
:1003200011922A95E9F7A8012AE030E07BD0780104
:100330008E01055F1F4FF70181917F0181113EDF23
:10034000E016F106C1F72B960FB6F894DEBF0FBE8C
:10035000CDBFDF91CF911F910F91FF90EF90089546
:10036000CF93DF93EC0101C029DF89918823E1F766
:10037000DF91CF9108958091C00087FFFCCF8091DD
:10038000C600089502C08091C6008091C00087FD1C
:10039000FACF0895CF93DF93CDB7DEB729970FB685
:1003A000F894DEBF0FBECDBF80E895E2482F9E8354
:1003B0008D8381E090E0082F9A838983282F9C8386
:1003C0008B8331E03F83782F998788871A813C811E
:1003D0005E8161E089854ADE84EF91E0F6DE80E0AF
:1003E00091E0BEDFF9CFFB019F01E8944230BCF001
:1003F0004532ACF44A3029F497FB1EF49095819570
:100400009F4F642F772764D0805D8A330CF0895D1D
:100410008193CB010097A9F716F45DE25193108206
:10042000C90146C0FA01CF93FF93EF9322303CF10C
:1004300025322CF5C22FE894CA3049F497FB3EF4DC
:1004400090958095709561957F4F8F4F9F4F2C2F82
:10045000332744275527FF93EF934ED0EF91FF9119
:10046000605D6A330CF0695D6193B901CA01605047
:1004700070408040904059F716F4CDE2C19310824D
:100480008F919F91CF9114C0FB019F0142306CF07E
:1004900045325CF4642F77271BD0805D8A330CF0E3
:1004A000895D8193CB010097A9F71082C90100C033
:1004B000DC01FC01672F71917723E1F7329704C0CB
:1004C0007C916D9370836291AE17BF07C8F3089556
:1004D000AA1BBB1B51E107C0AA1FBB1FA617B7076A
:1004E00010F0A61BB70B881F991F5A95A9F7809586
:1004F0009095BC01CD010895A1E21A2EAA1BBB1B49
:10050000FD010DC0AA1FBB1FEE1FFF1FA217B307DF
:10051000E407F50720F0A21BB30BE40BF50B661FF5
:10052000771F881F991F1A9469F7609570958095B9
:1005300090959B01AC01BD01CF010895F894FFCFC8
:1005400048656C6C6F204D6F644C6162210A0D0030
:00000001FF
